{
	"data": {
		"bytecode": {
			"linkReferences": {},
			"object": "608060405234801561001057600080fd5b5033600560006101000a81548173ffffffffffffffffffffffffffffffffffffffff021916908373ffffffffffffffffffffffffffffffffffffffff160217905550611604806100616000396000f3fe608060405234801561001057600080fd5b50600436106100b45760003560e01c806377ca29471161007157806377ca2947146101b35780637fc29673146101e35780639cfeb679146101ed578063a30254e714610209578063c7a9f77b14610239578063dfd68b9114610257576100b4565b806301ffc9a7146100b9578063077f3b02146100e957806353acf8831461011957806365dd2f691461014957806371ae413d146101795780637241d75f14610197575b600080fd5b6100d360048036038101906100ce9190610a9e565b610287565b6040516100e09190610ae6565b60405180910390f35b61010360048036038101906100fe9190610c7d565b610321565b6040516101109190610ce8565b60405180910390f35b610133600480360381019061012e9190610d03565b6104ac565b6040516101409190610daf565b60405180910390f35b610163600480360381019061015e9190610dd1565b61054c565b6040516101709190610ce8565b60405180910390f35b6101816105fe565b60405161018e9190610e5b565b60405180910390f35b6101b160048036038101906101ac9190610e76565b610624565b005b6101cd60048036038101906101c89190610ee5565b610815565b6040516101da9190610ce8565b60405180910390f35b6101eb610850565b005b61020760048036038101906102029190610f6d565b6108a9565b005b610223600480360381019061021e9190610f6d565b6109f4565b6040516102309190610ae6565b60405180910390f35b610241610a14565b60405161024e9190610ce8565b60405180910390f35b610271600480360381019061026c9190610d03565b610a1a565b60405161027e9190610ce8565b60405180910390f35b60007f1c95926d000000000000000000000000000000000000000000000000000000007bffffffffffffffffffffffffffffffffffffffffffffffffffffffff1916827bffffffffffffffffffffffffffffffffffffffffffffffffffffffff1916148061031a57506301ffc9a760e01b827bffffffffffffffffffffffffffffffffffffffffffffffffffffffff1916145b9050919050565b60008060009050600560009054906101000a900473ffffffffffffffffffffffffffffffffffffffff1673ffffffffffffffffffffffffffffffffffffffff163373ffffffffffffffffffffffffffffffffffffffff1614806103cc57506000803373ffffffffffffffffffffffffffffffffffffffff1673ffffffffffffffffffffffffffffffffffffffff16815260200190815260200160002060009054906101000a900460ff165b156103d657600190505b80610416576040517f08c379a000000000000000000000000000000000000000000000000000000000815260040161040d9061100c565b60405180910390fd5b6000600454905084600260006004548152602001908152602001600020908161043f9190611238565b5083600160006004548152602001908152602001600020819055506004547f1e5500ede7ec81cd4d6537a1a618f3424510f89d03c2252ee7c80e60a1278b6760405160405180910390a26004600081548092919061049c90611339565b9190505550809250505092915050565b600260205280600052604060002060009150905080546104cb9061105b565b80601f01602080910402602001604051908101604052809291908181526020018280546104f79061105b565b80156105445780601f1061051957610100808354040283529160200191610544565b820191906000526020600020905b81548152906001019060200180831161052757829003601f168201915b505050505081565b600080600090506000805b6004548110156105d257600360008281526020019081526020016000208560405161058291906113bd565b9081526020016040518091039020548361059c91906113d4565b92506001600082815260200190815260200160002054826105bd91906113d4565b915080806105ca90611339565b915050610557565b50612710826105e19190611408565b9150600081836105f19190611479565b9050809350505050919050565b600560009054906101000a900473ffffffffffffffffffffffffffffffffffffffff1681565b6000600560009054906101000a900473ffffffffffffffffffffffffffffffffffffffff1673ffffffffffffffffffffffffffffffffffffffff163373ffffffffffffffffffffffffffffffffffffffff1614806106ca57506000803373ffffffffffffffffffffffffffffffffffffffff1673ffffffffffffffffffffffffffffffffffffffff16815260200190815260200160002060009054906101000a900460ff165b156106d457600190505b80610714576040517f08c379a000000000000000000000000000000000000000000000000000000000815260040161070b9061100c565b60405180910390fd5b6004548310610758576040517f08c379a000000000000000000000000000000000000000000000000000000000815260040161074f906114f6565b60405180910390fd5b60016000848152602001908152602001600020548211156107ae576040517f08c379a00000000000000000000000000000000000000000000000000000000081526004016107a5906115ae565b60405180910390fd5b8160036000858152602001908152602001600020856040516107d091906113bd565b908152602001604051809103902081905550827fef2ac44e203202a0e5ecc9974197e85354c58fc899e46eaa72f8aed9aa0b701d60405160405180910390a250505050565b600360205281600052604060002081805160208101820180518482526020830160208501208183528095505050505050600091509150505481565b60016000803373ffffffffffffffffffffffffffffffffffffffff1673ffffffffffffffffffffffffffffffffffffffff16815260200190815260200160002060006101000a81548160ff021916908315150217905550565b6000600560009054906101000a900473ffffffffffffffffffffffffffffffffffffffff1673ffffffffffffffffffffffffffffffffffffffff163373ffffffffffffffffffffffffffffffffffffffff16148061094f57506000803373ffffffffffffffffffffffffffffffffffffffff1673ffffffffffffffffffffffffffffffffffffffff16815260200190815260200160002060009054906101000a900460ff165b1561095957600190505b80610999576040517f08c379a00000000000000000000000000000000000000000000000000000000081526004016109909061100c565b60405180910390fd5b60016000808473ffffffffffffffffffffffffffffffffffffffff1673ffffffffffffffffffffffffffffffffffffffff16815260200190815260200160002060006101000a81548160ff0219169083151502179055505050565b60006020528060005260406000206000915054906101000a900460ff1681565b60045481565b60016020528060005260406000206000915090505481565b6000604051905090565b600080fd5b600080fd5b60007fffffffff0000000000000000000000000000000000000000000000000000000082169050919050565b610a7b81610a46565b8114610a8657600080fd5b50565b600081359050610a9881610a72565b92915050565b600060208284031215610ab457610ab3610a3c565b5b6000610ac284828501610a89565b91505092915050565b60008115159050919050565b610ae081610acb565b82525050565b6000602082019050610afb6000830184610ad7565b92915050565b600080fd5b600080fd5b6000601f19601f8301169050919050565b7f4e487b7100000000000000000000000000000000000000000000000000000000600052604160045260246000fd5b610b5482610b0b565b810181811067ffffffffffffffff82111715610b7357610b72610b1c565b5b80604052505050565b6000610b86610a32565b9050610b928282610b4b565b919050565b600067ffffffffffffffff821115610bb257610bb1610b1c565b5b610bbb82610b0b565b9050602081019050919050565b82818337600083830152505050565b6000610bea610be584610b97565b610b7c565b905082815260208101848484011115610c0657610c05610b06565b5b610c11848285610bc8565b509392505050565b600082601f830112610c2e57610c2d610b01565b5b8135610c3e848260208601610bd7565b91505092915050565b6000819050919050565b610c5a81610c47565b8114610c6557600080fd5b50565b600081359050610c7781610c51565b92915050565b60008060408385031215610c9457610c93610a3c565b5b600083013567ffffffffffffffff811115610cb257610cb1610a41565b5b610cbe85828601610c19565b9250506020610ccf85828601610c68565b9150509250929050565b610ce281610c47565b82525050565b6000602082019050610cfd6000830184610cd9565b92915050565b600060208284031215610d1957610d18610a3c565b5b6000610d2784828501610c68565b91505092915050565b600081519050919050565b600082825260208201905092915050565b60005b83811015610d6a578082015181840152602081019050610d4f565b60008484015250505050565b6000610d8182610d30565b610d8b8185610d3b565b9350610d9b818560208601610d4c565b610da481610b0b565b840191505092915050565b60006020820190508181036000830152610dc98184610d76565b905092915050565b600060208284031215610de757610de6610a3c565b5b600082013567ffffffffffffffff811115610e0557610e04610a41565b5b610e1184828501610c19565b91505092915050565b600073ffffffffffffffffffffffffffffffffffffffff82169050919050565b6000610e4582610e1a565b9050919050565b610e5581610e3a565b82525050565b6000602082019050610e706000830184610e4c565b92915050565b600080600060608486031215610e8f57610e8e610a3c565b5b600084013567ffffffffffffffff811115610ead57610eac610a41565b5b610eb986828701610c19565b9350506020610eca86828701610c68565b9250506040610edb86828701610c68565b9150509250925092565b60008060408385031215610efc57610efb610a3c565b5b6000610f0a85828601610c68565b925050602083013567ffffffffffffffff811115610f2b57610f2a610a41565b5b610f3785828601610c19565b9150509250929050565b610f4a81610e3a565b8114610f5557600080fd5b50565b600081359050610f6781610f41565b92915050565b600060208284031215610f8357610f82610a3c565b5b6000610f9184828501610f58565b91505092915050565b7f596f7520617265206e6f74207175616c696669656420746f2064657369676e6160008201527f74652054412e0000000000000000000000000000000000000000000000000000602082015250565b6000610ff6602683610d3b565b915061100182610f9a565b604082019050919050565b6000602082019050818103600083015261102581610fe9565b9050919050565b7f4e487b7100000000000000000000000000000000000000000000000000000000600052602260045260246000fd5b6000600282049050600182168061107357607f821691505b6020821081036110865761108561102c565b5b50919050565b60008190508160005260206000209050919050565b60006020601f8301049050919050565b600082821b905092915050565b6000600883026110ee7fffffffffffffffffffffffffffffffffffffffffffffffffffffffffffffffff826110b1565b6110f886836110b1565b95508019841693508086168417925050509392505050565b6000819050919050565b600061113561113061112b84610c47565b611110565b610c47565b9050919050565b6000819050919050565b61114f8361111a565b61116361115b8261113c565b8484546110be565b825550505050565b600090565b61117861116b565b611183818484611146565b505050565b5b818110156111a75761119c600082611170565b600181019050611189565b5050565b601f8211156111ec576111bd8161108c565b6111c6846110a1565b810160208510156111d5578190505b6111e96111e1856110a1565b830182611188565b50505b505050565b600082821c905092915050565b600061120f600019846008026111f1565b1980831691505092915050565b600061122883836111fe565b9150826002028217905092915050565b61124182610d30565b67ffffffffffffffff81111561125a57611259610b1c565b5b611264825461105b565b61126f8282856111ab565b600060209050601f8311600181146112a25760008415611290578287015190505b61129a858261121c565b865550611302565b601f1984166112b08661108c565b60005b828110156112d8578489015182556001820191506020850194506020810190506112b3565b868310156112f557848901516112f1601f8916826111fe565b8355505b6001600288020188555050505b505050505050565b7f4e487b7100000000000000000000000000000000000000000000000000000000600052601160045260246000fd5b600061134482610c47565b91507fffffffffffffffffffffffffffffffffffffffffffffffffffffffffffffffff82036113765761137561130a565b5b600182019050919050565b600081905092915050565b600061139782610d30565b6113a18185611381565b93506113b1818560208601610d4c565b80840191505092915050565b60006113c9828461138c565b915081905092915050565b60006113df82610c47565b91506113ea83610c47565b92508282019050808211156114025761140161130a565b5b92915050565b600061141382610c47565b915061141e83610c47565b925082820261142c81610c47565b915082820484148315176114435761144261130a565b5b5092915050565b7f4e487b7100000000000000000000000000000000000000000000000000000000600052601260045260246000fd5b600061148482610c47565b915061148f83610c47565b92508261149f5761149e61144a565b5b828204905092915050565b7f5468652061737369676e6d656e7420696420697320696e76616c69642e000000600082015250565b60006114e0601d83610d3b565b91506114eb826114aa565b602082019050919050565b6000602082019050818103600083015261150f816114d3565b9050919050565b7f5468652061737369676e65642073636f7265206973206772656174657220746860008201527f616e20746865206d6178696d756d2073636f7265206f6620746869732061737360208201527f69676e6d656e742e000000000000000000000000000000000000000000000000604082015250565b6000611598604883610d3b565b91506115a382611516565b606082019050919050565b600060208201905081810360008301526115c78161158b565b905091905056fea2646970667358221220acec4d1ae4dfc70b426a4b1c5883cc5e1dac81384dc8275ffa2f6a044d7f979f64736f6c63430008110033",
			"opcodes": "PUSH1 0x80 PUSH1 0x40 MSTORE CALLVALUE DUP1 ISZERO PUSH2 0x10 JUMPI PUSH1 0x0 DUP1 REVERT JUMPDEST POP CALLER PUSH1 0x5 PUSH1 0x0 PUSH2 0x100 EXP DUP2 SLOAD DUP2 PUSH20 0xFFFFFFFFFFFFFFFFFFFFFFFFFFFFFFFFFFFFFFFF MUL NOT AND SWAP1 DUP4 PUSH20 0xFFFFFFFFFFFFFFFFFFFFFFFFFFFFFFFFFFFFFFFF AND MUL OR SWAP1 SSTORE POP PUSH2 0x1604 DUP1 PUSH2 0x61 PUSH1 0x0 CODECOPY PUSH1 0x0 RETURN INVALID PUSH1 0x80 PUSH1 0x40 MSTORE CALLVALUE DUP1 ISZERO PUSH2 0x10 JUMPI PUSH1 0x0 DUP1 REVERT JUMPDEST POP PUSH1 0x4 CALLDATASIZE LT PUSH2 0xB4 JUMPI PUSH1 0x0 CALLDATALOAD PUSH1 0xE0 SHR DUP1 PUSH4 0x77CA2947 GT PUSH2 0x71 JUMPI DUP1 PUSH4 0x77CA2947 EQ PUSH2 0x1B3 JUMPI DUP1 PUSH4 0x7FC29673 EQ PUSH2 0x1E3 JUMPI DUP1 PUSH4 0x9CFEB679 EQ PUSH2 0x1ED JUMPI DUP1 PUSH4 0xA30254E7 EQ PUSH2 0x209 JUMPI DUP1 PUSH4 0xC7A9F77B EQ PUSH2 0x239 JUMPI DUP1 PUSH4 0xDFD68B91 EQ PUSH2 0x257 JUMPI PUSH2 0xB4 JUMP JUMPDEST DUP1 PUSH4 0x1FFC9A7 EQ PUSH2 0xB9 JUMPI DUP1 PUSH4 0x77F3B02 EQ PUSH2 0xE9 JUMPI DUP1 PUSH4 0x53ACF883 EQ PUSH2 0x119 JUMPI DUP1 PUSH4 0x65DD2F69 EQ PUSH2 0x149 JUMPI DUP1 PUSH4 0x71AE413D EQ PUSH2 0x179 JUMPI DUP1 PUSH4 0x7241D75F EQ PUSH2 0x197 JUMPI JUMPDEST PUSH1 0x0 DUP1 REVERT JUMPDEST PUSH2 0xD3 PUSH1 0x4 DUP1 CALLDATASIZE SUB DUP2 ADD SWAP1 PUSH2 0xCE SWAP2 SWAP1 PUSH2 0xA9E JUMP JUMPDEST PUSH2 0x287 JUMP JUMPDEST PUSH1 0x40 MLOAD PUSH2 0xE0 SWAP2 SWAP1 PUSH2 0xAE6 JUMP JUMPDEST PUSH1 0x40 MLOAD DUP1 SWAP2 SUB SWAP1 RETURN JUMPDEST PUSH2 0x103 PUSH1 0x4 DUP1 CALLDATASIZE SUB DUP2 ADD SWAP1 PUSH2 0xFE SWAP2 SWAP1 PUSH2 0xC7D JUMP JUMPDEST PUSH2 0x321 JUMP JUMPDEST PUSH1 0x40 MLOAD PUSH2 0x110 SWAP2 SWAP1 PUSH2 0xCE8 JUMP JUMPDEST PUSH1 0x40 MLOAD DUP1 SWAP2 SUB SWAP1 RETURN JUMPDEST PUSH2 0x133 PUSH1 0x4 DUP1 CALLDATASIZE SUB DUP2 ADD SWAP1 PUSH2 0x12E SWAP2 SWAP1 PUSH2 0xD03 JUMP JUMPDEST PUSH2 0x4AC JUMP JUMPDEST PUSH1 0x40 MLOAD PUSH2 0x140 SWAP2 SWAP1 PUSH2 0xDAF JUMP JUMPDEST PUSH1 0x40 MLOAD DUP1 SWAP2 SUB SWAP1 RETURN JUMPDEST PUSH2 0x163 PUSH1 0x4 DUP1 CALLDATASIZE SUB DUP2 ADD SWAP1 PUSH2 0x15E SWAP2 SWAP1 PUSH2 0xDD1 JUMP JUMPDEST PUSH2 0x54C JUMP JUMPDEST PUSH1 0x40 MLOAD PUSH2 0x170 SWAP2 SWAP1 PUSH2 0xCE8 JUMP JUMPDEST PUSH1 0x40 MLOAD DUP1 SWAP2 SUB SWAP1 RETURN JUMPDEST PUSH2 0x181 PUSH2 0x5FE JUMP JUMPDEST PUSH1 0x40 MLOAD PUSH2 0x18E SWAP2 SWAP1 PUSH2 0xE5B JUMP JUMPDEST PUSH1 0x40 MLOAD DUP1 SWAP2 SUB SWAP1 RETURN JUMPDEST PUSH2 0x1B1 PUSH1 0x4 DUP1 CALLDATASIZE SUB DUP2 ADD SWAP1 PUSH2 0x1AC SWAP2 SWAP1 PUSH2 0xE76 JUMP JUMPDEST PUSH2 0x624 JUMP JUMPDEST STOP JUMPDEST PUSH2 0x1CD PUSH1 0x4 DUP1 CALLDATASIZE SUB DUP2 ADD SWAP1 PUSH2 0x1C8 SWAP2 SWAP1 PUSH2 0xEE5 JUMP JUMPDEST PUSH2 0x815 JUMP JUMPDEST PUSH1 0x40 MLOAD PUSH2 0x1DA SWAP2 SWAP1 PUSH2 0xCE8 JUMP JUMPDEST PUSH1 0x40 MLOAD DUP1 SWAP2 SUB SWAP1 RETURN JUMPDEST PUSH2 0x1EB PUSH2 0x850 JUMP JUMPDEST STOP JUMPDEST PUSH2 0x207 PUSH1 0x4 DUP1 CALLDATASIZE SUB DUP2 ADD SWAP1 PUSH2 0x202 SWAP2 SWAP1 PUSH2 0xF6D JUMP JUMPDEST PUSH2 0x8A9 JUMP JUMPDEST STOP JUMPDEST PUSH2 0x223 PUSH1 0x4 DUP1 CALLDATASIZE SUB DUP2 ADD SWAP1 PUSH2 0x21E SWAP2 SWAP1 PUSH2 0xF6D JUMP JUMPDEST PUSH2 0x9F4 JUMP JUMPDEST PUSH1 0x40 MLOAD PUSH2 0x230 SWAP2 SWAP1 PUSH2 0xAE6 JUMP JUMPDEST PUSH1 0x40 MLOAD DUP1 SWAP2 SUB SWAP1 RETURN JUMPDEST PUSH2 0x241 PUSH2 0xA14 JUMP JUMPDEST PUSH1 0x40 MLOAD PUSH2 0x24E SWAP2 SWAP1 PUSH2 0xCE8 JUMP JUMPDEST PUSH1 0x40 MLOAD DUP1 SWAP2 SUB SWAP1 RETURN JUMPDEST PUSH2 0x271 PUSH1 0x4 DUP1 CALLDATASIZE SUB DUP2 ADD SWAP1 PUSH2 0x26C SWAP2 SWAP1 PUSH2 0xD03 JUMP JUMPDEST PUSH2 0xA1A JUMP JUMPDEST PUSH1 0x40 MLOAD PUSH2 0x27E SWAP2 SWAP1 PUSH2 0xCE8 JUMP JUMPDEST PUSH1 0x40 MLOAD DUP1 SWAP2 SUB SWAP1 RETURN JUMPDEST PUSH1 0x0 PUSH32 0x1C95926D00000000000000000000000000000000000000000000000000000000 PUSH28 0xFFFFFFFFFFFFFFFFFFFFFFFFFFFFFFFFFFFFFFFFFFFFFFFFFFFFFFFF NOT AND DUP3 PUSH28 0xFFFFFFFFFFFFFFFFFFFFFFFFFFFFFFFFFFFFFFFFFFFFFFFFFFFFFFFF NOT AND EQ DUP1 PUSH2 0x31A JUMPI POP PUSH4 0x1FFC9A7 PUSH1 0xE0 SHL DUP3 PUSH28 0xFFFFFFFFFFFFFFFFFFFFFFFFFFFFFFFFFFFFFFFFFFFFFFFFFFFFFFFF NOT AND EQ JUMPDEST SWAP1 POP SWAP2 SWAP1 POP JUMP JUMPDEST PUSH1 0x0 DUP1 PUSH1 0x0 SWAP1 POP PUSH1 0x5 PUSH1 0x0 SWAP1 SLOAD SWAP1 PUSH2 0x100 EXP SWAP1 DIV PUSH20 0xFFFFFFFFFFFFFFFFFFFFFFFFFFFFFFFFFFFFFFFF AND PUSH20 0xFFFFFFFFFFFFFFFFFFFFFFFFFFFFFFFFFFFFFFFF AND CALLER PUSH20 0xFFFFFFFFFFFFFFFFFFFFFFFFFFFFFFFFFFFFFFFF AND EQ DUP1 PUSH2 0x3CC JUMPI POP PUSH1 0x0 DUP1 CALLER PUSH20 0xFFFFFFFFFFFFFFFFFFFFFFFFFFFFFFFFFFFFFFFF AND PUSH20 0xFFFFFFFFFFFFFFFFFFFFFFFFFFFFFFFFFFFFFFFF AND DUP2 MSTORE PUSH1 0x20 ADD SWAP1 DUP2 MSTORE PUSH1 0x20 ADD PUSH1 0x0 KECCAK256 PUSH1 0x0 SWAP1 SLOAD SWAP1 PUSH2 0x100 EXP SWAP1 DIV PUSH1 0xFF AND JUMPDEST ISZERO PUSH2 0x3D6 JUMPI PUSH1 0x1 SWAP1 POP JUMPDEST DUP1 PUSH2 0x416 JUMPI PUSH1 0x40 MLOAD PUSH32 0x8C379A000000000000000000000000000000000000000000000000000000000 DUP2 MSTORE PUSH1 0x4 ADD PUSH2 0x40D SWAP1 PUSH2 0x100C JUMP JUMPDEST PUSH1 0x40 MLOAD DUP1 SWAP2 SUB SWAP1 REVERT JUMPDEST PUSH1 0x0 PUSH1 0x4 SLOAD SWAP1 POP DUP5 PUSH1 0x2 PUSH1 0x0 PUSH1 0x4 SLOAD DUP2 MSTORE PUSH1 0x20 ADD SWAP1 DUP2 MSTORE PUSH1 0x20 ADD PUSH1 0x0 KECCAK256 SWAP1 DUP2 PUSH2 0x43F SWAP2 SWAP1 PUSH2 0x1238 JUMP JUMPDEST POP DUP4 PUSH1 0x1 PUSH1 0x0 PUSH1 0x4 SLOAD DUP2 MSTORE PUSH1 0x20 ADD SWAP1 DUP2 MSTORE PUSH1 0x20 ADD PUSH1 0x0 KECCAK256 DUP2 SWAP1 SSTORE POP PUSH1 0x4 SLOAD PUSH32 0x1E5500EDE7EC81CD4D6537A1A618F3424510F89D03C2252EE7C80E60A1278B67 PUSH1 0x40 MLOAD PUSH1 0x40 MLOAD DUP1 SWAP2 SUB SWAP1 LOG2 PUSH1 0x4 PUSH1 0x0 DUP2 SLOAD DUP1 SWAP3 SWAP2 SWAP1 PUSH2 0x49C SWAP1 PUSH2 0x1339 JUMP JUMPDEST SWAP2 SWAP1 POP SSTORE POP DUP1 SWAP3 POP POP POP SWAP3 SWAP2 POP POP JUMP JUMPDEST PUSH1 0x2 PUSH1 0x20 MSTORE DUP1 PUSH1 0x0 MSTORE PUSH1 0x40 PUSH1 0x0 KECCAK256 PUSH1 0x0 SWAP2 POP SWAP1 POP DUP1 SLOAD PUSH2 0x4CB SWAP1 PUSH2 0x105B JUMP JUMPDEST DUP1 PUSH1 0x1F ADD PUSH1 0x20 DUP1 SWAP2 DIV MUL PUSH1 0x20 ADD PUSH1 0x40 MLOAD SWAP1 DUP2 ADD PUSH1 0x40 MSTORE DUP1 SWAP3 SWAP2 SWAP1 DUP2 DUP2 MSTORE PUSH1 0x20 ADD DUP3 DUP1 SLOAD PUSH2 0x4F7 SWAP1 PUSH2 0x105B JUMP JUMPDEST DUP1 ISZERO PUSH2 0x544 JUMPI DUP1 PUSH1 0x1F LT PUSH2 0x519 JUMPI PUSH2 0x100 DUP1 DUP4 SLOAD DIV MUL DUP4 MSTORE SWAP2 PUSH1 0x20 ADD SWAP2 PUSH2 0x544 JUMP JUMPDEST DUP3 ADD SWAP2 SWAP1 PUSH1 0x0 MSTORE PUSH1 0x20 PUSH1 0x0 KECCAK256 SWAP1 JUMPDEST DUP2 SLOAD DUP2 MSTORE SWAP1 PUSH1 0x1 ADD SWAP1 PUSH1 0x20 ADD DUP1 DUP4 GT PUSH2 0x527 JUMPI DUP3 SWAP1 SUB PUSH1 0x1F AND DUP3 ADD SWAP2 JUMPDEST POP POP POP POP POP DUP2 JUMP JUMPDEST PUSH1 0x0 DUP1 PUSH1 0x0 SWAP1 POP PUSH1 0x0 DUP1 JUMPDEST PUSH1 0x4 SLOAD DUP2 LT ISZERO PUSH2 0x5D2 JUMPI PUSH1 0x3 PUSH1 0x0 DUP3 DUP2 MSTORE PUSH1 0x20 ADD SWAP1 DUP2 MSTORE PUSH1 0x20 ADD PUSH1 0x0 KECCAK256 DUP6 PUSH1 0x40 MLOAD PUSH2 0x582 SWAP2 SWAP1 PUSH2 0x13BD JUMP JUMPDEST SWAP1 DUP2 MSTORE PUSH1 0x20 ADD PUSH1 0x40 MLOAD DUP1 SWAP2 SUB SWAP1 KECCAK256 SLOAD DUP4 PUSH2 0x59C SWAP2 SWAP1 PUSH2 0x13D4 JUMP JUMPDEST SWAP3 POP PUSH1 0x1 PUSH1 0x0 DUP3 DUP2 MSTORE PUSH1 0x20 ADD SWAP1 DUP2 MSTORE PUSH1 0x20 ADD PUSH1 0x0 KECCAK256 SLOAD DUP3 PUSH2 0x5BD SWAP2 SWAP1 PUSH2 0x13D4 JUMP JUMPDEST SWAP2 POP DUP1 DUP1 PUSH2 0x5CA SWAP1 PUSH2 0x1339 JUMP JUMPDEST SWAP2 POP POP PUSH2 0x557 JUMP JUMPDEST POP PUSH2 0x2710 DUP3 PUSH2 0x5E1 SWAP2 SWAP1 PUSH2 0x1408 JUMP JUMPDEST SWAP2 POP PUSH1 0x0 DUP2 DUP4 PUSH2 0x5F1 SWAP2 SWAP1 PUSH2 0x1479 JUMP JUMPDEST SWAP1 POP DUP1 SWAP4 POP POP POP POP SWAP2 SWAP1 POP JUMP JUMPDEST PUSH1 0x5 PUSH1 0x0 SWAP1 SLOAD SWAP1 PUSH2 0x100 EXP SWAP1 DIV PUSH20 0xFFFFFFFFFFFFFFFFFFFFFFFFFFFFFFFFFFFFFFFF AND DUP2 JUMP JUMPDEST PUSH1 0x0 PUSH1 0x5 PUSH1 0x0 SWAP1 SLOAD SWAP1 PUSH2 0x100 EXP SWAP1 DIV PUSH20 0xFFFFFFFFFFFFFFFFFFFFFFFFFFFFFFFFFFFFFFFF AND PUSH20 0xFFFFFFFFFFFFFFFFFFFFFFFFFFFFFFFFFFFFFFFF AND CALLER PUSH20 0xFFFFFFFFFFFFFFFFFFFFFFFFFFFFFFFFFFFFFFFF AND EQ DUP1 PUSH2 0x6CA JUMPI POP PUSH1 0x0 DUP1 CALLER PUSH20 0xFFFFFFFFFFFFFFFFFFFFFFFFFFFFFFFFFFFFFFFF AND PUSH20 0xFFFFFFFFFFFFFFFFFFFFFFFFFFFFFFFFFFFFFFFF AND DUP2 MSTORE PUSH1 0x20 ADD SWAP1 DUP2 MSTORE PUSH1 0x20 ADD PUSH1 0x0 KECCAK256 PUSH1 0x0 SWAP1 SLOAD SWAP1 PUSH2 0x100 EXP SWAP1 DIV PUSH1 0xFF AND JUMPDEST ISZERO PUSH2 0x6D4 JUMPI PUSH1 0x1 SWAP1 POP JUMPDEST DUP1 PUSH2 0x714 JUMPI PUSH1 0x40 MLOAD PUSH32 0x8C379A000000000000000000000000000000000000000000000000000000000 DUP2 MSTORE PUSH1 0x4 ADD PUSH2 0x70B SWAP1 PUSH2 0x100C JUMP JUMPDEST PUSH1 0x40 MLOAD DUP1 SWAP2 SUB SWAP1 REVERT JUMPDEST PUSH1 0x4 SLOAD DUP4 LT PUSH2 0x758 JUMPI PUSH1 0x40 MLOAD PUSH32 0x8C379A000000000000000000000000000000000000000000000000000000000 DUP2 MSTORE PUSH1 0x4 ADD PUSH2 0x74F SWAP1 PUSH2 0x14F6 JUMP JUMPDEST PUSH1 0x40 MLOAD DUP1 SWAP2 SUB SWAP1 REVERT JUMPDEST PUSH1 0x1 PUSH1 0x0 DUP5 DUP2 MSTORE PUSH1 0x20 ADD SWAP1 DUP2 MSTORE PUSH1 0x20 ADD PUSH1 0x0 KECCAK256 SLOAD DUP3 GT ISZERO PUSH2 0x7AE JUMPI PUSH1 0x40 MLOAD PUSH32 0x8C379A000000000000000000000000000000000000000000000000000000000 DUP2 MSTORE PUSH1 0x4 ADD PUSH2 0x7A5 SWAP1 PUSH2 0x15AE JUMP JUMPDEST PUSH1 0x40 MLOAD DUP1 SWAP2 SUB SWAP1 REVERT JUMPDEST DUP2 PUSH1 0x3 PUSH1 0x0 DUP6 DUP2 MSTORE PUSH1 0x20 ADD SWAP1 DUP2 MSTORE PUSH1 0x20 ADD PUSH1 0x0 KECCAK256 DUP6 PUSH1 0x40 MLOAD PUSH2 0x7D0 SWAP2 SWAP1 PUSH2 0x13BD JUMP JUMPDEST SWAP1 DUP2 MSTORE PUSH1 0x20 ADD PUSH1 0x40 MLOAD DUP1 SWAP2 SUB SWAP1 KECCAK256 DUP2 SWAP1 SSTORE POP DUP3 PUSH32 0xEF2AC44E203202A0E5ECC9974197E85354C58FC899E46EAA72F8AED9AA0B701D PUSH1 0x40 MLOAD PUSH1 0x40 MLOAD DUP1 SWAP2 SUB SWAP1 LOG2 POP POP POP POP JUMP JUMPDEST PUSH1 0x3 PUSH1 0x20 MSTORE DUP2 PUSH1 0x0 MSTORE PUSH1 0x40 PUSH1 0x0 KECCAK256 DUP2 DUP1 MLOAD PUSH1 0x20 DUP2 ADD DUP3 ADD DUP1 MLOAD DUP5 DUP3 MSTORE PUSH1 0x20 DUP4 ADD PUSH1 0x20 DUP6 ADD KECCAK256 DUP2 DUP4 MSTORE DUP1 SWAP6 POP POP POP POP POP POP PUSH1 0x0 SWAP2 POP SWAP2 POP POP SLOAD DUP2 JUMP JUMPDEST PUSH1 0x1 PUSH1 0x0 DUP1 CALLER PUSH20 0xFFFFFFFFFFFFFFFFFFFFFFFFFFFFFFFFFFFFFFFF AND PUSH20 0xFFFFFFFFFFFFFFFFFFFFFFFFFFFFFFFFFFFFFFFF AND DUP2 MSTORE PUSH1 0x20 ADD SWAP1 DUP2 MSTORE PUSH1 0x20 ADD PUSH1 0x0 KECCAK256 PUSH1 0x0 PUSH2 0x100 EXP DUP2 SLOAD DUP2 PUSH1 0xFF MUL NOT AND SWAP1 DUP4 ISZERO ISZERO MUL OR SWAP1 SSTORE POP JUMP JUMPDEST PUSH1 0x0 PUSH1 0x5 PUSH1 0x0 SWAP1 SLOAD SWAP1 PUSH2 0x100 EXP SWAP1 DIV PUSH20 0xFFFFFFFFFFFFFFFFFFFFFFFFFFFFFFFFFFFFFFFF AND PUSH20 0xFFFFFFFFFFFFFFFFFFFFFFFFFFFFFFFFFFFFFFFF AND CALLER PUSH20 0xFFFFFFFFFFFFFFFFFFFFFFFFFFFFFFFFFFFFFFFF AND EQ DUP1 PUSH2 0x94F JUMPI POP PUSH1 0x0 DUP1 CALLER PUSH20 0xFFFFFFFFFFFFFFFFFFFFFFFFFFFFFFFFFFFFFFFF AND PUSH20 0xFFFFFFFFFFFFFFFFFFFFFFFFFFFFFFFFFFFFFFFF AND DUP2 MSTORE PUSH1 0x20 ADD SWAP1 DUP2 MSTORE PUSH1 0x20 ADD PUSH1 0x0 KECCAK256 PUSH1 0x0 SWAP1 SLOAD SWAP1 PUSH2 0x100 EXP SWAP1 DIV PUSH1 0xFF AND JUMPDEST ISZERO PUSH2 0x959 JUMPI PUSH1 0x1 SWAP1 POP JUMPDEST DUP1 PUSH2 0x999 JUMPI PUSH1 0x40 MLOAD PUSH32 0x8C379A000000000000000000000000000000000000000000000000000000000 DUP2 MSTORE PUSH1 0x4 ADD PUSH2 0x990 SWAP1 PUSH2 0x100C JUMP JUMPDEST PUSH1 0x40 MLOAD DUP1 SWAP2 SUB SWAP1 REVERT JUMPDEST PUSH1 0x1 PUSH1 0x0 DUP1 DUP5 PUSH20 0xFFFFFFFFFFFFFFFFFFFFFFFFFFFFFFFFFFFFFFFF AND PUSH20 0xFFFFFFFFFFFFFFFFFFFFFFFFFFFFFFFFFFFFFFFF AND DUP2 MSTORE PUSH1 0x20 ADD SWAP1 DUP2 MSTORE PUSH1 0x20 ADD PUSH1 0x0 KECCAK256 PUSH1 0x0 PUSH2 0x100 EXP DUP2 SLOAD DUP2 PUSH1 0xFF MUL NOT AND SWAP1 DUP4 ISZERO ISZERO MUL OR SWAP1 SSTORE POP POP POP JUMP JUMPDEST PUSH1 0x0 PUSH1 0x20 MSTORE DUP1 PUSH1 0x0 MSTORE PUSH1 0x40 PUSH1 0x0 KECCAK256 PUSH1 0x0 SWAP2 POP SLOAD SWAP1 PUSH2 0x100 EXP SWAP1 DIV PUSH1 0xFF AND DUP2 JUMP JUMPDEST PUSH1 0x4 SLOAD DUP2 JUMP JUMPDEST PUSH1 0x1 PUSH1 0x20 MSTORE DUP1 PUSH1 0x0 MSTORE PUSH1 0x40 PUSH1 0x0 KECCAK256 PUSH1 0x0 SWAP2 POP SWAP1 POP SLOAD DUP2 JUMP JUMPDEST PUSH1 0x0 PUSH1 0x40 MLOAD SWAP1 POP SWAP1 JUMP JUMPDEST PUSH1 0x0 DUP1 REVERT JUMPDEST PUSH1 0x0 DUP1 REVERT JUMPDEST PUSH1 0x0 PUSH32 0xFFFFFFFF00000000000000000000000000000000000000000000000000000000 DUP3 AND SWAP1 POP SWAP2 SWAP1 POP JUMP JUMPDEST PUSH2 0xA7B DUP2 PUSH2 0xA46 JUMP JUMPDEST DUP2 EQ PUSH2 0xA86 JUMPI PUSH1 0x0 DUP1 REVERT JUMPDEST POP JUMP JUMPDEST PUSH1 0x0 DUP2 CALLDATALOAD SWAP1 POP PUSH2 0xA98 DUP2 PUSH2 0xA72 JUMP JUMPDEST SWAP3 SWAP2 POP POP JUMP JUMPDEST PUSH1 0x0 PUSH1 0x20 DUP3 DUP5 SUB SLT ISZERO PUSH2 0xAB4 JUMPI PUSH2 0xAB3 PUSH2 0xA3C JUMP JUMPDEST JUMPDEST PUSH1 0x0 PUSH2 0xAC2 DUP5 DUP3 DUP6 ADD PUSH2 0xA89 JUMP JUMPDEST SWAP2 POP POP SWAP3 SWAP2 POP POP JUMP JUMPDEST PUSH1 0x0 DUP2 ISZERO ISZERO SWAP1 POP SWAP2 SWAP1 POP JUMP JUMPDEST PUSH2 0xAE0 DUP2 PUSH2 0xACB JUMP JUMPDEST DUP3 MSTORE POP POP JUMP JUMPDEST PUSH1 0x0 PUSH1 0x20 DUP3 ADD SWAP1 POP PUSH2 0xAFB PUSH1 0x0 DUP4 ADD DUP5 PUSH2 0xAD7 JUMP JUMPDEST SWAP3 SWAP2 POP POP JUMP JUMPDEST PUSH1 0x0 DUP1 REVERT JUMPDEST PUSH1 0x0 DUP1 REVERT JUMPDEST PUSH1 0x0 PUSH1 0x1F NOT PUSH1 0x1F DUP4 ADD AND SWAP1 POP SWAP2 SWAP1 POP JUMP JUMPDEST PUSH32 0x4E487B7100000000000000000000000000000000000000000000000000000000 PUSH1 0x0 MSTORE PUSH1 0x41 PUSH1 0x4 MSTORE PUSH1 0x24 PUSH1 0x0 REVERT JUMPDEST PUSH2 0xB54 DUP3 PUSH2 0xB0B JUMP JUMPDEST DUP2 ADD DUP2 DUP2 LT PUSH8 0xFFFFFFFFFFFFFFFF DUP3 GT OR ISZERO PUSH2 0xB73 JUMPI PUSH2 0xB72 PUSH2 0xB1C JUMP JUMPDEST JUMPDEST DUP1 PUSH1 0x40 MSTORE POP POP POP JUMP JUMPDEST PUSH1 0x0 PUSH2 0xB86 PUSH2 0xA32 JUMP JUMPDEST SWAP1 POP PUSH2 0xB92 DUP3 DUP3 PUSH2 0xB4B JUMP JUMPDEST SWAP2 SWAP1 POP JUMP JUMPDEST PUSH1 0x0 PUSH8 0xFFFFFFFFFFFFFFFF DUP3 GT ISZERO PUSH2 0xBB2 JUMPI PUSH2 0xBB1 PUSH2 0xB1C JUMP JUMPDEST JUMPDEST PUSH2 0xBBB DUP3 PUSH2 0xB0B JUMP JUMPDEST SWAP1 POP PUSH1 0x20 DUP2 ADD SWAP1 POP SWAP2 SWAP1 POP JUMP JUMPDEST DUP3 DUP2 DUP4 CALLDATACOPY PUSH1 0x0 DUP4 DUP4 ADD MSTORE POP POP POP JUMP JUMPDEST PUSH1 0x0 PUSH2 0xBEA PUSH2 0xBE5 DUP5 PUSH2 0xB97 JUMP JUMPDEST PUSH2 0xB7C JUMP JUMPDEST SWAP1 POP DUP3 DUP2 MSTORE PUSH1 0x20 DUP2 ADD DUP5 DUP5 DUP5 ADD GT ISZERO PUSH2 0xC06 JUMPI PUSH2 0xC05 PUSH2 0xB06 JUMP JUMPDEST JUMPDEST PUSH2 0xC11 DUP5 DUP3 DUP6 PUSH2 0xBC8 JUMP JUMPDEST POP SWAP4 SWAP3 POP POP POP JUMP JUMPDEST PUSH1 0x0 DUP3 PUSH1 0x1F DUP4 ADD SLT PUSH2 0xC2E JUMPI PUSH2 0xC2D PUSH2 0xB01 JUMP JUMPDEST JUMPDEST DUP2 CALLDATALOAD PUSH2 0xC3E DUP5 DUP3 PUSH1 0x20 DUP7 ADD PUSH2 0xBD7 JUMP JUMPDEST SWAP2 POP POP SWAP3 SWAP2 POP POP JUMP JUMPDEST PUSH1 0x0 DUP2 SWAP1 POP SWAP2 SWAP1 POP JUMP JUMPDEST PUSH2 0xC5A DUP2 PUSH2 0xC47 JUMP JUMPDEST DUP2 EQ PUSH2 0xC65 JUMPI PUSH1 0x0 DUP1 REVERT JUMPDEST POP JUMP JUMPDEST PUSH1 0x0 DUP2 CALLDATALOAD SWAP1 POP PUSH2 0xC77 DUP2 PUSH2 0xC51 JUMP JUMPDEST SWAP3 SWAP2 POP POP JUMP JUMPDEST PUSH1 0x0 DUP1 PUSH1 0x40 DUP4 DUP6 SUB SLT ISZERO PUSH2 0xC94 JUMPI PUSH2 0xC93 PUSH2 0xA3C JUMP JUMPDEST JUMPDEST PUSH1 0x0 DUP4 ADD CALLDATALOAD PUSH8 0xFFFFFFFFFFFFFFFF DUP2 GT ISZERO PUSH2 0xCB2 JUMPI PUSH2 0xCB1 PUSH2 0xA41 JUMP JUMPDEST JUMPDEST PUSH2 0xCBE DUP6 DUP3 DUP7 ADD PUSH2 0xC19 JUMP JUMPDEST SWAP3 POP POP PUSH1 0x20 PUSH2 0xCCF DUP6 DUP3 DUP7 ADD PUSH2 0xC68 JUMP JUMPDEST SWAP2 POP POP SWAP3 POP SWAP3 SWAP1 POP JUMP JUMPDEST PUSH2 0xCE2 DUP2 PUSH2 0xC47 JUMP JUMPDEST DUP3 MSTORE POP POP JUMP JUMPDEST PUSH1 0x0 PUSH1 0x20 DUP3 ADD SWAP1 POP PUSH2 0xCFD PUSH1 0x0 DUP4 ADD DUP5 PUSH2 0xCD9 JUMP JUMPDEST SWAP3 SWAP2 POP POP JUMP JUMPDEST PUSH1 0x0 PUSH1 0x20 DUP3 DUP5 SUB SLT ISZERO PUSH2 0xD19 JUMPI PUSH2 0xD18 PUSH2 0xA3C JUMP JUMPDEST JUMPDEST PUSH1 0x0 PUSH2 0xD27 DUP5 DUP3 DUP6 ADD PUSH2 0xC68 JUMP JUMPDEST SWAP2 POP POP SWAP3 SWAP2 POP POP JUMP JUMPDEST PUSH1 0x0 DUP2 MLOAD SWAP1 POP SWAP2 SWAP1 POP JUMP JUMPDEST PUSH1 0x0 DUP3 DUP3 MSTORE PUSH1 0x20 DUP3 ADD SWAP1 POP SWAP3 SWAP2 POP POP JUMP JUMPDEST PUSH1 0x0 JUMPDEST DUP4 DUP2 LT ISZERO PUSH2 0xD6A JUMPI DUP1 DUP3 ADD MLOAD DUP2 DUP5 ADD MSTORE PUSH1 0x20 DUP2 ADD SWAP1 POP PUSH2 0xD4F JUMP JUMPDEST PUSH1 0x0 DUP5 DUP5 ADD MSTORE POP POP POP POP JUMP JUMPDEST PUSH1 0x0 PUSH2 0xD81 DUP3 PUSH2 0xD30 JUMP JUMPDEST PUSH2 0xD8B DUP2 DUP6 PUSH2 0xD3B JUMP JUMPDEST SWAP4 POP PUSH2 0xD9B DUP2 DUP6 PUSH1 0x20 DUP7 ADD PUSH2 0xD4C JUMP JUMPDEST PUSH2 0xDA4 DUP2 PUSH2 0xB0B JUMP JUMPDEST DUP5 ADD SWAP2 POP POP SWAP3 SWAP2 POP POP JUMP JUMPDEST PUSH1 0x0 PUSH1 0x20 DUP3 ADD SWAP1 POP DUP2 DUP2 SUB PUSH1 0x0 DUP4 ADD MSTORE PUSH2 0xDC9 DUP2 DUP5 PUSH2 0xD76 JUMP JUMPDEST SWAP1 POP SWAP3 SWAP2 POP POP JUMP JUMPDEST PUSH1 0x0 PUSH1 0x20 DUP3 DUP5 SUB SLT ISZERO PUSH2 0xDE7 JUMPI PUSH2 0xDE6 PUSH2 0xA3C JUMP JUMPDEST JUMPDEST PUSH1 0x0 DUP3 ADD CALLDATALOAD PUSH8 0xFFFFFFFFFFFFFFFF DUP2 GT ISZERO PUSH2 0xE05 JUMPI PUSH2 0xE04 PUSH2 0xA41 JUMP JUMPDEST JUMPDEST PUSH2 0xE11 DUP5 DUP3 DUP6 ADD PUSH2 0xC19 JUMP JUMPDEST SWAP2 POP POP SWAP3 SWAP2 POP POP JUMP JUMPDEST PUSH1 0x0 PUSH20 0xFFFFFFFFFFFFFFFFFFFFFFFFFFFFFFFFFFFFFFFF DUP3 AND SWAP1 POP SWAP2 SWAP1 POP JUMP JUMPDEST PUSH1 0x0 PUSH2 0xE45 DUP3 PUSH2 0xE1A JUMP JUMPDEST SWAP1 POP SWAP2 SWAP1 POP JUMP JUMPDEST PUSH2 0xE55 DUP2 PUSH2 0xE3A JUMP JUMPDEST DUP3 MSTORE POP POP JUMP JUMPDEST PUSH1 0x0 PUSH1 0x20 DUP3 ADD SWAP1 POP PUSH2 0xE70 PUSH1 0x0 DUP4 ADD DUP5 PUSH2 0xE4C JUMP JUMPDEST SWAP3 SWAP2 POP POP JUMP JUMPDEST PUSH1 0x0 DUP1 PUSH1 0x0 PUSH1 0x60 DUP5 DUP7 SUB SLT ISZERO PUSH2 0xE8F JUMPI PUSH2 0xE8E PUSH2 0xA3C JUMP JUMPDEST JUMPDEST PUSH1 0x0 DUP5 ADD CALLDATALOAD PUSH8 0xFFFFFFFFFFFFFFFF DUP2 GT ISZERO PUSH2 0xEAD JUMPI PUSH2 0xEAC PUSH2 0xA41 JUMP JUMPDEST JUMPDEST PUSH2 0xEB9 DUP7 DUP3 DUP8 ADD PUSH2 0xC19 JUMP JUMPDEST SWAP4 POP POP PUSH1 0x20 PUSH2 0xECA DUP7 DUP3 DUP8 ADD PUSH2 0xC68 JUMP JUMPDEST SWAP3 POP POP PUSH1 0x40 PUSH2 0xEDB DUP7 DUP3 DUP8 ADD PUSH2 0xC68 JUMP JUMPDEST SWAP2 POP POP SWAP3 POP SWAP3 POP SWAP3 JUMP JUMPDEST PUSH1 0x0 DUP1 PUSH1 0x40 DUP4 DUP6 SUB SLT ISZERO PUSH2 0xEFC JUMPI PUSH2 0xEFB PUSH2 0xA3C JUMP JUMPDEST JUMPDEST PUSH1 0x0 PUSH2 0xF0A DUP6 DUP3 DUP7 ADD PUSH2 0xC68 JUMP JUMPDEST SWAP3 POP POP PUSH1 0x20 DUP4 ADD CALLDATALOAD PUSH8 0xFFFFFFFFFFFFFFFF DUP2 GT ISZERO PUSH2 0xF2B JUMPI PUSH2 0xF2A PUSH2 0xA41 JUMP JUMPDEST JUMPDEST PUSH2 0xF37 DUP6 DUP3 DUP7 ADD PUSH2 0xC19 JUMP JUMPDEST SWAP2 POP POP SWAP3 POP SWAP3 SWAP1 POP JUMP JUMPDEST PUSH2 0xF4A DUP2 PUSH2 0xE3A JUMP JUMPDEST DUP2 EQ PUSH2 0xF55 JUMPI PUSH1 0x0 DUP1 REVERT JUMPDEST POP JUMP JUMPDEST PUSH1 0x0 DUP2 CALLDATALOAD SWAP1 POP PUSH2 0xF67 DUP2 PUSH2 0xF41 JUMP JUMPDEST SWAP3 SWAP2 POP POP JUMP JUMPDEST PUSH1 0x0 PUSH1 0x20 DUP3 DUP5 SUB SLT ISZERO PUSH2 0xF83 JUMPI PUSH2 0xF82 PUSH2 0xA3C JUMP JUMPDEST JUMPDEST PUSH1 0x0 PUSH2 0xF91 DUP5 DUP3 DUP6 ADD PUSH2 0xF58 JUMP JUMPDEST SWAP2 POP POP SWAP3 SWAP2 POP POP JUMP JUMPDEST PUSH32 0x596F7520617265206E6F74207175616C696669656420746F2064657369676E61 PUSH1 0x0 DUP3 ADD MSTORE PUSH32 0x74652054412E0000000000000000000000000000000000000000000000000000 PUSH1 0x20 DUP3 ADD MSTORE POP JUMP JUMPDEST PUSH1 0x0 PUSH2 0xFF6 PUSH1 0x26 DUP4 PUSH2 0xD3B JUMP JUMPDEST SWAP2 POP PUSH2 0x1001 DUP3 PUSH2 0xF9A JUMP JUMPDEST PUSH1 0x40 DUP3 ADD SWAP1 POP SWAP2 SWAP1 POP JUMP JUMPDEST PUSH1 0x0 PUSH1 0x20 DUP3 ADD SWAP1 POP DUP2 DUP2 SUB PUSH1 0x0 DUP4 ADD MSTORE PUSH2 0x1025 DUP2 PUSH2 0xFE9 JUMP JUMPDEST SWAP1 POP SWAP2 SWAP1 POP JUMP JUMPDEST PUSH32 0x4E487B7100000000000000000000000000000000000000000000000000000000 PUSH1 0x0 MSTORE PUSH1 0x22 PUSH1 0x4 MSTORE PUSH1 0x24 PUSH1 0x0 REVERT JUMPDEST PUSH1 0x0 PUSH1 0x2 DUP3 DIV SWAP1 POP PUSH1 0x1 DUP3 AND DUP1 PUSH2 0x1073 JUMPI PUSH1 0x7F DUP3 AND SWAP2 POP JUMPDEST PUSH1 0x20 DUP3 LT DUP2 SUB PUSH2 0x1086 JUMPI PUSH2 0x1085 PUSH2 0x102C JUMP JUMPDEST JUMPDEST POP SWAP2 SWAP1 POP JUMP JUMPDEST PUSH1 0x0 DUP2 SWAP1 POP DUP2 PUSH1 0x0 MSTORE PUSH1 0x20 PUSH1 0x0 KECCAK256 SWAP1 POP SWAP2 SWAP1 POP JUMP JUMPDEST PUSH1 0x0 PUSH1 0x20 PUSH1 0x1F DUP4 ADD DIV SWAP1 POP SWAP2 SWAP1 POP JUMP JUMPDEST PUSH1 0x0 DUP3 DUP3 SHL SWAP1 POP SWAP3 SWAP2 POP POP JUMP JUMPDEST PUSH1 0x0 PUSH1 0x8 DUP4 MUL PUSH2 0x10EE PUSH32 0xFFFFFFFFFFFFFFFFFFFFFFFFFFFFFFFFFFFFFFFFFFFFFFFFFFFFFFFFFFFFFFFF DUP3 PUSH2 0x10B1 JUMP JUMPDEST PUSH2 0x10F8 DUP7 DUP4 PUSH2 0x10B1 JUMP JUMPDEST SWAP6 POP DUP1 NOT DUP5 AND SWAP4 POP DUP1 DUP7 AND DUP5 OR SWAP3 POP POP POP SWAP4 SWAP3 POP POP POP JUMP JUMPDEST PUSH1 0x0 DUP2 SWAP1 POP SWAP2 SWAP1 POP JUMP JUMPDEST PUSH1 0x0 PUSH2 0x1135 PUSH2 0x1130 PUSH2 0x112B DUP5 PUSH2 0xC47 JUMP JUMPDEST PUSH2 0x1110 JUMP JUMPDEST PUSH2 0xC47 JUMP JUMPDEST SWAP1 POP SWAP2 SWAP1 POP JUMP JUMPDEST PUSH1 0x0 DUP2 SWAP1 POP SWAP2 SWAP1 POP JUMP JUMPDEST PUSH2 0x114F DUP4 PUSH2 0x111A JUMP JUMPDEST PUSH2 0x1163 PUSH2 0x115B DUP3 PUSH2 0x113C JUMP JUMPDEST DUP5 DUP5 SLOAD PUSH2 0x10BE JUMP JUMPDEST DUP3 SSTORE POP POP POP POP JUMP JUMPDEST PUSH1 0x0 SWAP1 JUMP JUMPDEST PUSH2 0x1178 PUSH2 0x116B JUMP JUMPDEST PUSH2 0x1183 DUP2 DUP5 DUP5 PUSH2 0x1146 JUMP JUMPDEST POP POP POP JUMP JUMPDEST JUMPDEST DUP2 DUP2 LT ISZERO PUSH2 0x11A7 JUMPI PUSH2 0x119C PUSH1 0x0 DUP3 PUSH2 0x1170 JUMP JUMPDEST PUSH1 0x1 DUP2 ADD SWAP1 POP PUSH2 0x1189 JUMP JUMPDEST POP POP JUMP JUMPDEST PUSH1 0x1F DUP3 GT ISZERO PUSH2 0x11EC JUMPI PUSH2 0x11BD DUP2 PUSH2 0x108C JUMP JUMPDEST PUSH2 0x11C6 DUP5 PUSH2 0x10A1 JUMP JUMPDEST DUP2 ADD PUSH1 0x20 DUP6 LT ISZERO PUSH2 0x11D5 JUMPI DUP2 SWAP1 POP JUMPDEST PUSH2 0x11E9 PUSH2 0x11E1 DUP6 PUSH2 0x10A1 JUMP JUMPDEST DUP4 ADD DUP3 PUSH2 0x1188 JUMP JUMPDEST POP POP JUMPDEST POP POP POP JUMP JUMPDEST PUSH1 0x0 DUP3 DUP3 SHR SWAP1 POP SWAP3 SWAP2 POP POP JUMP JUMPDEST PUSH1 0x0 PUSH2 0x120F PUSH1 0x0 NOT DUP5 PUSH1 0x8 MUL PUSH2 0x11F1 JUMP JUMPDEST NOT DUP1 DUP4 AND SWAP2 POP POP SWAP3 SWAP2 POP POP JUMP JUMPDEST PUSH1 0x0 PUSH2 0x1228 DUP4 DUP4 PUSH2 0x11FE JUMP JUMPDEST SWAP2 POP DUP3 PUSH1 0x2 MUL DUP3 OR SWAP1 POP SWAP3 SWAP2 POP POP JUMP JUMPDEST PUSH2 0x1241 DUP3 PUSH2 0xD30 JUMP JUMPDEST PUSH8 0xFFFFFFFFFFFFFFFF DUP2 GT ISZERO PUSH2 0x125A JUMPI PUSH2 0x1259 PUSH2 0xB1C JUMP JUMPDEST JUMPDEST PUSH2 0x1264 DUP3 SLOAD PUSH2 0x105B JUMP JUMPDEST PUSH2 0x126F DUP3 DUP3 DUP6 PUSH2 0x11AB JUMP JUMPDEST PUSH1 0x0 PUSH1 0x20 SWAP1 POP PUSH1 0x1F DUP4 GT PUSH1 0x1 DUP2 EQ PUSH2 0x12A2 JUMPI PUSH1 0x0 DUP5 ISZERO PUSH2 0x1290 JUMPI DUP3 DUP8 ADD MLOAD SWAP1 POP JUMPDEST PUSH2 0x129A DUP6 DUP3 PUSH2 0x121C JUMP JUMPDEST DUP7 SSTORE POP PUSH2 0x1302 JUMP JUMPDEST PUSH1 0x1F NOT DUP5 AND PUSH2 0x12B0 DUP7 PUSH2 0x108C JUMP JUMPDEST PUSH1 0x0 JUMPDEST DUP3 DUP2 LT ISZERO PUSH2 0x12D8 JUMPI DUP5 DUP10 ADD MLOAD DUP3 SSTORE PUSH1 0x1 DUP3 ADD SWAP2 POP PUSH1 0x20 DUP6 ADD SWAP5 POP PUSH1 0x20 DUP2 ADD SWAP1 POP PUSH2 0x12B3 JUMP JUMPDEST DUP7 DUP4 LT ISZERO PUSH2 0x12F5 JUMPI DUP5 DUP10 ADD MLOAD PUSH2 0x12F1 PUSH1 0x1F DUP10 AND DUP3 PUSH2 0x11FE JUMP JUMPDEST DUP4 SSTORE POP JUMPDEST PUSH1 0x1 PUSH1 0x2 DUP9 MUL ADD DUP9 SSTORE POP POP POP JUMPDEST POP POP POP POP POP POP JUMP JUMPDEST PUSH32 0x4E487B7100000000000000000000000000000000000000000000000000000000 PUSH1 0x0 MSTORE PUSH1 0x11 PUSH1 0x4 MSTORE PUSH1 0x24 PUSH1 0x0 REVERT JUMPDEST PUSH1 0x0 PUSH2 0x1344 DUP3 PUSH2 0xC47 JUMP JUMPDEST SWAP2 POP PUSH32 0xFFFFFFFFFFFFFFFFFFFFFFFFFFFFFFFFFFFFFFFFFFFFFFFFFFFFFFFFFFFFFFFF DUP3 SUB PUSH2 0x1376 JUMPI PUSH2 0x1375 PUSH2 0x130A JUMP JUMPDEST JUMPDEST PUSH1 0x1 DUP3 ADD SWAP1 POP SWAP2 SWAP1 POP JUMP JUMPDEST PUSH1 0x0 DUP2 SWAP1 POP SWAP3 SWAP2 POP POP JUMP JUMPDEST PUSH1 0x0 PUSH2 0x1397 DUP3 PUSH2 0xD30 JUMP JUMPDEST PUSH2 0x13A1 DUP2 DUP6 PUSH2 0x1381 JUMP JUMPDEST SWAP4 POP PUSH2 0x13B1 DUP2 DUP6 PUSH1 0x20 DUP7 ADD PUSH2 0xD4C JUMP JUMPDEST DUP1 DUP5 ADD SWAP2 POP POP SWAP3 SWAP2 POP POP JUMP JUMPDEST PUSH1 0x0 PUSH2 0x13C9 DUP3 DUP5 PUSH2 0x138C JUMP JUMPDEST SWAP2 POP DUP2 SWAP1 POP SWAP3 SWAP2 POP POP JUMP JUMPDEST PUSH1 0x0 PUSH2 0x13DF DUP3 PUSH2 0xC47 JUMP JUMPDEST SWAP2 POP PUSH2 0x13EA DUP4 PUSH2 0xC47 JUMP JUMPDEST SWAP3 POP DUP3 DUP3 ADD SWAP1 POP DUP1 DUP3 GT ISZERO PUSH2 0x1402 JUMPI PUSH2 0x1401 PUSH2 0x130A JUMP JUMPDEST JUMPDEST SWAP3 SWAP2 POP POP JUMP JUMPDEST PUSH1 0x0 PUSH2 0x1413 DUP3 PUSH2 0xC47 JUMP JUMPDEST SWAP2 POP PUSH2 0x141E DUP4 PUSH2 0xC47 JUMP JUMPDEST SWAP3 POP DUP3 DUP3 MUL PUSH2 0x142C DUP2 PUSH2 0xC47 JUMP JUMPDEST SWAP2 POP DUP3 DUP3 DIV DUP5 EQ DUP4 ISZERO OR PUSH2 0x1443 JUMPI PUSH2 0x1442 PUSH2 0x130A JUMP JUMPDEST JUMPDEST POP SWAP3 SWAP2 POP POP JUMP JUMPDEST PUSH32 0x4E487B7100000000000000000000000000000000000000000000000000000000 PUSH1 0x0 MSTORE PUSH1 0x12 PUSH1 0x4 MSTORE PUSH1 0x24 PUSH1 0x0 REVERT JUMPDEST PUSH1 0x0 PUSH2 0x1484 DUP3 PUSH2 0xC47 JUMP JUMPDEST SWAP2 POP PUSH2 0x148F DUP4 PUSH2 0xC47 JUMP JUMPDEST SWAP3 POP DUP3 PUSH2 0x149F JUMPI PUSH2 0x149E PUSH2 0x144A JUMP JUMPDEST JUMPDEST DUP3 DUP3 DIV SWAP1 POP SWAP3 SWAP2 POP POP JUMP JUMPDEST PUSH32 0x5468652061737369676E6D656E7420696420697320696E76616C69642E000000 PUSH1 0x0 DUP3 ADD MSTORE POP JUMP JUMPDEST PUSH1 0x0 PUSH2 0x14E0 PUSH1 0x1D DUP4 PUSH2 0xD3B JUMP JUMPDEST SWAP2 POP PUSH2 0x14EB DUP3 PUSH2 0x14AA JUMP JUMPDEST PUSH1 0x20 DUP3 ADD SWAP1 POP SWAP2 SWAP1 POP JUMP JUMPDEST PUSH1 0x0 PUSH1 0x20 DUP3 ADD SWAP1 POP DUP2 DUP2 SUB PUSH1 0x0 DUP4 ADD MSTORE PUSH2 0x150F DUP2 PUSH2 0x14D3 JUMP JUMPDEST SWAP1 POP SWAP2 SWAP1 POP JUMP JUMPDEST PUSH32 0x5468652061737369676E65642073636F72652069732067726561746572207468 PUSH1 0x0 DUP3 ADD MSTORE PUSH32 0x616E20746865206D6178696D756D2073636F7265206F66207468697320617373 PUSH1 0x20 DUP3 ADD MSTORE PUSH32 0x69676E6D656E742E000000000000000000000000000000000000000000000000 PUSH1 0x40 DUP3 ADD MSTORE POP JUMP JUMPDEST PUSH1 0x0 PUSH2 0x1598 PUSH1 0x48 DUP4 PUSH2 0xD3B JUMP JUMPDEST SWAP2 POP PUSH2 0x15A3 DUP3 PUSH2 0x1516 JUMP JUMPDEST PUSH1 0x60 DUP3 ADD SWAP1 POP SWAP2 SWAP1 POP JUMP JUMPDEST PUSH1 0x0 PUSH1 0x20 DUP3 ADD SWAP1 POP DUP2 DUP2 SUB PUSH1 0x0 DUP4 ADD MSTORE PUSH2 0x15C7 DUP2 PUSH2 0x158B JUMP JUMPDEST SWAP1 POP SWAP2 SWAP1 POP JUMP INVALID LOG2 PUSH5 0x6970667358 0x22 SLT KECCAK256 0xAC 0xEC 0x4D BYTE 0xE4 0xDF 0xC7 SIGNEXTEND TIMESTAMP PUSH11 0x4B1C5883CC5E1DAC81384D 0xC8 0x27 0x5F STATICCALL 0x2F PUSH11 0x44D7F979F64736F6C6343 STOP ADDMOD GT STOP CALLER "
		},
		"gasEstimates": {
			"creation": {
				"codeDepositCost": "1127200",
				"executionCost": "25440",
				"totalCost": "1152640"
			},
			"external": {
				"addAssignment(string,uint256)": "infinite",
				"addGrade(string,uint256,uint256)": "infinite",
				"assignment_names(uint256)": "infinite",
				"designateTA(address)": "29306",
				"getAverage(string)": "infinite",
				"instructor()": "2603",
				"max_scores(uint256)": "infinite",
				"num_assignments()": "2517",
				"requestTAAccess()": "24522",
				"scores(uint256,string)": "infinite",
				"supportsInterface(bytes4)": "682",
				"tas(address)": "2911"
			}
		},
		"methodIdentifiers": {
			"addAssignment(string,uint256)": "077f3b02",
			"addGrade(string,uint256,uint256)": "7241d75f",
			"assignment_names(uint256)": "53acf883",
			"designateTA(address)": "9cfeb679",
			"getAverage(string)": "65dd2f69",
			"instructor()": "71ae413d",
			"max_scores(uint256)": "dfd68b91",
			"num_assignments()": "c7a9f77b",
			"requestTAAccess()": "7fc29673",
			"scores(uint256,string)": "77ca2947",
			"supportsInterface(bytes4)": "01ffc9a7",
			"tas(address)": "a30254e7"
		}
	},
	"abi": [
		{
			"inputs": [],
			"stateMutability": "nonpayable",
			"type": "constructor"
		},
		{
			"anonymous": false,
			"inputs": [
				{
					"indexed": true,
					"internalType": "uint256",
					"name": "_id",
					"type": "uint256"
				}
			],
			"name": "assignmentCreationEvent",
			"type": "event"
		},
		{
			"anonymous": false,
			"inputs": [
				{
					"indexed": true,
					"internalType": "uint256",
					"name": "_id",
					"type": "uint256"
				}
			],
			"name": "gradeEntryEvent",
			"type": "event"
		},
		{
			"inputs": [
				{
					"internalType": "string",
					"name": "name",
					"type": "string"
				},
				{
					"internalType": "uint256",
					"name": "max_score",
					"type": "uint256"
				}
			],
			"name": "addAssignment",
			"outputs": [
				{
					"internalType": "uint256",
					"name": "",
					"type": "uint256"
				}
			],
			"stateMutability": "nonpayable",
			"type": "function"
		},
		{
			"inputs": [
				{
					"internalType": "string",
					"name": "student",
					"type": "string"
				},
				{
					"internalType": "uint256",
					"name": "assignment",
					"type": "uint256"
				},
				{
					"internalType": "uint256",
					"name": "score",
					"type": "uint256"
				}
			],
			"name": "addGrade",
			"outputs": [],
			"stateMutability": "nonpayable",
			"type": "function"
		},
		{
			"inputs": [
				{
					"internalType": "uint256",
					"name": "",
					"type": "uint256"
				}
			],
			"name": "assignment_names",
			"outputs": [
				{
					"internalType": "string",
					"name": "",
					"type": "string"
				}
			],
			"stateMutability": "view",
			"type": "function"
		},
		{
			"inputs": [
				{
					"internalType": "address",
					"name": "ta",
					"type": "address"
				}
			],
			"name": "designateTA",
			"outputs": [],
			"stateMutability": "nonpayable",
			"type": "function"
		},
		{
			"inputs": [
				{
					"internalType": "string",
					"name": "student",
					"type": "string"
				}
			],
			"name": "getAverage",
			"outputs": [
				{
					"internalType": "uint256",
					"name": "",
					"type": "uint256"
				}
			],
			"stateMutability": "view",
			"type": "function"
		},
		{
			"inputs": [],
			"name": "instructor",
			"outputs": [
				{
					"internalType": "address",
					"name": "",
					"type": "address"
				}
			],
			"stateMutability": "view",
			"type": "function"
		},
		{
			"inputs": [
				{
					"internalType": "uint256",
					"name": "",
					"type": "uint256"
				}
			],
			"name": "max_scores",
			"outputs": [
				{
					"internalType": "uint256",
					"name": "",
					"type": "uint256"
				}
			],
			"stateMutability": "view",
			"type": "function"
		},
		{
			"inputs": [],
			"name": "num_assignments",
			"outputs": [
				{
					"internalType": "uint256",
					"name": "",
					"type": "uint256"
				}
			],
			"stateMutability": "view",
			"type": "function"
		},
		{
			"inputs": [],
			"name": "requestTAAccess",
			"outputs": [],
			"stateMutability": "nonpayable",
			"type": "function"
		},
		{
			"inputs": [
				{
					"internalType": "uint256",
					"name": "",
					"type": "uint256"
				},
				{
					"internalType": "string",
					"name": "",
					"type": "string"
				}
			],
			"name": "scores",
			"outputs": [
				{
					"internalType": "uint256",
					"name": "",
					"type": "uint256"
				}
			],
			"stateMutability": "view",
			"type": "function"
		},
		{
			"inputs": [
				{
					"internalType": "bytes4",
					"name": "interfaceId",
					"type": "bytes4"
				}
			],
			"name": "supportsInterface",
			"outputs": [
				{
					"internalType": "bool",
					"name": "",
					"type": "bool"
				}
			],
			"stateMutability": "pure",
			"type": "function"
		},
		{
			"inputs": [
				{
					"internalType": "address",
					"name": "",
					"type": "address"
				}
			],
			"name": "tas",
			"outputs": [
				{
					"internalType": "bool",
					"name": "",
					"type": "bool"
				}
			],
			"stateMutability": "view",
			"type": "function"
		}
	]
}